:020000040800F2
:10000000A01B0020C9000008E51D00081B1A0008FD
:1000100000000000000000000000000000000000E0
:100020000000000000000000000000002F1E00087B
:1000300000000000000000002D1E000847220008FC
:10004000DB00000800000000DB000008DB00000807
:10005000DB000008DB000008DB000008DB00000814
:1000600000000000DB00000811020008290200085F
:10007000DB000008DB000008DB00000800000000D7
:10008000512300086123000800000000DB00000885
:10009000DB000008DB000008DB000008DB000008D4
:1000A000DB000008DB000008DB000008CD280008AA
:1000B000152A00080348854600F03CF80048004730
:1000C000552D0008A01B0020044880470448004725
:1000D000FEE7FEE7FEE7FEE7FEE7FEE7C5220008D3
:1000E000B500000830B50B4601460020202201244F
:1000F00009E00D46D5409D4205D31D469540491B5C
:100100002546954040191546521E002DF1DC30BDA4
:10011000D2B201E00270401C491EFBD2704700229F
:10012000F6E710B513460A4604461946FFF7F0FFF6
:10013000204610BD064C0125064E05E0E36807CCBD
:100140002B430C3C98471034B442F7D3FFF7B6FF6B
:10015000982D0008B82D000870B58C180578401C43
:100160006B075B0F01D10378401C2A1106D102787E
:10017000401C03E006780E70401C491C5B1EF9D140
:100180002B0705D40023521E0DD40B70491CFAE72F
:100190000378401CCB1A921C03E01D780D70491C9B
:1001A0005B1C521EF9D5A142D8D3002070BD0000BF
:1001B00070B50A4DFF22EE1D1346F93605E00478AE
:1001C00054402A5D5A40335D401C0C46491E89B29A
:1001D000002CF4D11002184370BD00008E080020DE
:1001E00070B501F0F6FF0025284602F018F800204F
:1001F00002F021F80024002002F070FD641CE4B23B
:10020000402CF8D36D1CEDB2082DEDD370BD00006D
:1002100010B5034800F0CEFA024800F0CBFA10BD4A
:10022000000D0020440D002010B5034800F0C2FA74
:10023000024800F0BFFA10BD880D0020CC0D002050
:1002400010B504460068054940181421FFF74AFF1D
:10025000800020640248E06310BD0000F8FFFDBF8D
:100260000000024030B5056C0124AC40C56B6C60E9
:10027000046863604368102B036803D099600068CA
:10028000C26030BD9A600068C16030BDFFB52A4FC2
:1002900084460021B81E81B002780AE04C001D7827
:1002A0003E5DB54204D1E4195D786478A54202D080
:1002B000491C9142F2DB0446914206DA1820414380
:1002C0001D4831300E18183601E01B4E313660469D
:1002D00001F07FFF03988006800E0390607801286C
:1002E00025D00027029801F09AFF039801F0A3FFA0
:1002F0000025705D384302F0F1FC6D1C0C2DF8DB1D
:100300006078022815D000250298401CC0B201F088
:1003100086FF039801F08FFF00243019007B2843EB
:1003200002F0DCFC641C0C2CF7DB05B0F0BD0127EF
:10033000D8E78025E8E700000A000020FFB5002488
:10034000203B81B0174626465E2B2FD8DDB201F048
:1003500040FFB806800E174F03907878012800D12F
:100360000126029801F05BFF039801F064FF124937
:1003700028014518285D304302F0B0FC641C082CAD
:10038000F8DB7878022813D000260298401CC0B20F
:1003900001F045FF039801F04EFF00242819007A70
:1003A000304302F09BFC641C082CF7DB05B0F0BD69
:1003B0008026EAE70800002093020020F8B51646E0
:1003C0000D46002401F005FF114FB6067878B60EF1
:1003D000012800D10124284601F021FF304601F018
:1003E0002AFF6020204302F079FC787802280CD0A4
:1003F00000246D1CE8B201F012FF304601F01BFF33
:100400000620204302F06AFCF8BD8024F1E70000DA
:1004100008000020F8B52A490746C97800200129BC
:1004200001D03020F8BD264B19791D7A0A02521AE4
:100430005979541899790A02521AD9795218597A65
:100440000E022E435D7B197B2D020D43D97B9B7BD6
:10045000090219433B0002F061FC0E090B0D101557
:100460001719081B1D1F262D3008DBE7204614E056
:10047000204619E01046642110E010460A21FFF7DB
:1004800031FE11E010460FE070BA06E070BA0BE0E2
:1004900068BA02E068BA07E048BA0A21FFF722FE0C
:1004A0003030C0B2F8BD48BA0A21FFF71BFE08463B
:1004B0003030F8BD0248407CF8BD0148C07CF8BD32
:1004C0008E0A002010B501F05EFE012001F0B0FCA4
:1004D00010BDFFB581B000241E4625460A9F01F0DD
:1004E00078FE029801F09BFE039801F0A4FE012F14
:1004F00002D0022F02D008E0012506E0802504E0AA
:10050000284602F0EBFB641CE4B2B442F8D305B019
:10051000F0BD00000149487070470000080000204D
:10052000FEE7000030B51649044600780978884295
:1005300022D16078032804D0062802D0102808D0E1
:100540001CE006212046FFF733FEA179E27909027B
:100550000EE020796179000240184000C01D85B28C
:1005600029462046FFF724FE615D09026219527890
:10057000891889B2884201D0002030BD012030BDE9
:100580008C08002030B505460024FFF7CBFF01287A
:1005900001D0002030BD6978032904D0062906D097
:1005A000102908D109E0284601F0AEFB02E02846F8
:1005B00001F0D2FB0446204630BD284601F0E8FB9E
:1005C000F8E74178032905D0062907D0102905D07E
:1005D000002070478078401DC0B2704708207047E7
:1005E00010B50446C0073DD001220F21432000F082
:1005F00073F86408E00737D001220F21412000F092
:100600006BF86408E00731D001220421412000F09A
:1006100063F86408E0072BD001220821412000F094
:100620005BF86408E00725D001220521412000F095
:1006300053F86408E0071FD001220C21412000F08C
:100640004BF86408E00719D001220621412000F090
:1006500043F86008C00713D001220B21412000F0AD
:100660003BF810BD0022C0E70022C6E70022CCE71D
:100670000022D2E70022D8E70022DEE70022E4E7EA
:100680000022EAE701228A4010B54138030002F057
:1006900045FB0604090D111A151A91B20022092012
:1006A000C0060EE091B2002207480AE091B2002293
:1006B000064806E091B20022054802E091B200220D
:1006C000044800F0D9F910BD0004004800080048B3
:1006D000000C00480014004810B5002A02D000F0B9
:1006E00005F810BDFFF7CEFF10BD000001228A40C3
:1006F00010B54138030002F011FB0604090D111A70
:10070000151A91B201220920C0060EE091B2012211
:1007100007480AE091B20122064806E091B20122A0
:10072000054802E091B20122044800F0A5F910BD8D
:100730000004004800080048000C0048001400486D
:1007400001680A680E239A430A6001680A68520821
:1007500052000A600123026C19469140C26B51603D
:1007600020304370002101700846704770B50024A6
:10077000014620314A78022A03D0042181630124F2
:1007800016E0026813680E25AB4313600268136815
:100790005B085B0013600125036C2A469A40C36B1B
:1007A0005A604D7000220A70416B002900D08847C2
:1007B000204670BDF0B4C16B0C6801680B68042260
:1007C000056C1646AE4026420DD05E070BD50B6871
:1007D0009B0602D40B6893430B60016C8A40C16B8B
:1007E0004A60C16A19E00227AF400246274001264D
:1007F0002032002F15D09F0713D50B689B0604D419
:100800000B680A24A3430B605670036C02219940C5
:10081000C36B596000211170816A002916D0F0BCA9
:1008200008470827AF40274210D01B070ED50B689A
:100830000E24A3430B60036C31469940C36B59608F
:100840008663567000211170016BE6E7F0BC7047BB
:1008500070B5040023D0022025462035687020683A
:100860000168104AA3681140626826691A43E36868
:1008700033431A4363691A43A3691A43E3691A436A
:100880000A4302602046FFF7DBFC0020A062E06222
:1008900020636063A06301216970287070BD01202E
:1008A00070BD00000FC0FFFFF8B504468C46203035
:1008B00001780025012909D001260670477800211A
:1008C000012F05D0017002252846F8BD0220F8BD91
:1008D00002274770A1632068016849084900016048
:1008E00061462046FFF7BEFCE06A002820680168E8
:1008F00002D00E22114306E00A2211430160206853
:10090000016804229143016020680168314301605D
:10091000DAE731B500F0B6F8009C0546601C00D05F
:10092000641C00F0AFF8401BA042FAD338BD0000B1
:10093000F8B500228DE001249440A44623407DD0E8
:100940004C68022C01D0122C0CD1D408A40026181B
:10095000356A5407E40E0F27A740BD430F69A7402F
:100960002F433762066855000324AC400F79A64335
:10097000BF07BF0FAF40374307604E68012E05D059
:10098000022E03D0112E01D0122E0ED18668CF6810
:10099000A643AF403743876047686646B7430E7942
:1009A000F606F60F96403E434660C668A6438C683E
:1009B000AC403443C4604C68E40049D5284CA56978
:1009C00001263543A561A469950834400094254C5F
:1009D000AD002F19BD689407240F0F26A640B5431C
:1009E0000926F606B04201D100260FE01E4EB042A5
:1009F00001D101260AE01D4EB04201D1022605E0D8
:100A00001B4EB04201D1032600E00526A6402E432E
:100A1000BE60184D2C684E689C43F60300D51C43FD
:100A20002C606C684E689C43B60300D51C436C6018
:100A3000AC684E689C43F60202D500E008E01C4317
:100A4000AC60EC684E689C43B60200D51C43EC6079
:100A5000521C0B681C46D44000D06CE7F8BD000067
:100A60000010024000000140000400480008004857
:100A7000000C004800040140002A01D08161704749
:100A80008162704701480068704700000000002044
:100A900070B504000FD0216813480860216813481E
:100AA000086003CC41602068083C21688860FFF73B
:100AB000E9FF054608E0012070BDFFF7E3FF401B9A
:100AC000272801D9032070BD2068C0680028F4D110
:100AD00020680269E1688A4201D0016101E00449AD
:100AE0000160002070BD0000CCCC00005555000016
:100AF000AAAA0000006802490160002070470000B7
:100B0000AAAA000002480168491C01607047000061
:100B10000000002010B50648016810221143016052
:100B2000002000F007F800F017F8002010BD0000CA
:100B30000020024010B5044600F03CF97D21C900B8
:100B4000FFF7D0FA00F034FB00222146501E00F0DF
:100B500021F8002010BD000008B508488169012275
:100B600011438161816911400091C26901040A4306
:100B7000C261C0690840009008BD0000001002403A
:100B8000C106C90E01208840014908607047000075
:100B900000E100E010B501F027F910BDF8B50446FA
:100BA0000068364DC00354D5E8690026C00007D45C
:100BB000E86929040843E861E869084001260090D3
:100BC0002F480168C90511D4014608688A151043E9
:100BD0000860FFF757FF074604E0FFF753FFC01B0D
:100BE000642823D826480068C005F6D5286A032162
:100BF000090208401FD062680A4082421BD0286A5E
:100C00002A6A8843012109040A432A622A6A8A431C
:100C10002A622862C0070ED0FFF734FF074607E0BC
:100C2000FFF730FFC11B1748814201D90320F8BDEF
:100C3000286A8007F4D5286A03210902884361687D
:100C400008432862002E04D0E8690121090788437F
:100C5000E8612078C00705D0286BA1688008800073
:100C6000084328632078800605D5286B1021884327
:100C7000E168084328630020F8BD0000001002402E
:100C80000070004088130000F8B5044644480E4642
:100C90000068C007C00FB0420AD241480168490845
:100CA0004900314301600068C007C00FB0425CD109
:100CB00020783C4F800705D57868F0218843A168EB
:100CC000084378602078C0073FD06068012813D0BF
:100CD0003968022813D08907002946DA796889081B
:100CE000890001437960FFF7CDFE05466068012861
:100CF0000DD0022817D024E039688903ECE7890178
:100D0000EAE7FFF7BFFE411B2748814217D8786802
:100D10000007800F0128F4D117E0FFF7B3FE411B55
:100D2000214881420BD878680007800F0228F4D14F
:100D30000BE0FFF7A7FE411B1B48814201D90320AE
:100D4000F8BD78680007800FF3D115480168C9071E
:100D5000C90FB1420BD9016849084900314301600C
:100D60000068C007C00FB04201D00120F8BD207854
:100D7000400706D57868072109028843E1680843DF
:100D8000786000F02DF87968084A0906090F515C6F
:100D9000C840074908600020FFF7CCFE0020F8BDDE
:100DA0000020024000100240881300007E2D000841
:100DB0000400002001480068704700000400002083
:100DC0000448054900684968044A4905490F515CCF
:100DD000C840704704000020001002408E2D00081B
:100DE00010B513A00FC888B06C460FC414A00FC86C
:100DF0000FC4174B5A680C201146014015480429AE
:100E00000FD008290DD19102090F6C46645CD96A94
:100E100004AB0907090F595CD20304D5FFF762F947
:100E2000604308B010BD0C4920464843F9E7000074
:100E300002030405060708090A0B0C0D0E0F10101B
:100E40000102030405060708090A0B0C0D0E0F101A
:100E50000010024000127A0000093D00FEB5044671
:100E60000078D04DC00746D068680007800F012881
:100E700007D068680007800F022809D16868C0039E
:100E800006D52868800336D5606800287ED032E019
:100E900001216068090401280AD08A00002801D0D5
:100EA00005280FD02868884328602868904301E00F
:100EB0002868084328606068002810D0FFF7E2FD2A
:100EC000064608E0286810432860F1E7FFF7DAFDDE
:100ED000801B64286FD828688003F7D50BE0FFF7E4
:100EE000D1FD064604E0FFF7CDFD801B6428F1D854
:100EF00028688003F7D420780126800700283BDA91
:100F000068680007800F07D068680007800F022814
:100F100009D16868C00306D42868800715D5E06841
:100F2000012833D111E0E0680028286815D030434B
:100F30002860FFF7A7FD074604E0FFF7A3FDC01BED
:100F40000228C7D828688007F7D52868F821884381
:100F50002169C900084328600EE04008400028606D
:100F6000FFF790FD074604E0FFF78CFDC01B022849
:100F7000B0D828688007F7D42078000724D5E06926
:100F80000028686A10D03043686200E007E1FFF78C
:100F900079FD074604E0FFF775FDC01B022899D8CC
:100FA000686A8007F7D50FE0400840006862FFF7E5
:100FB00069FD074605E09DE0FFF764FDC01B0228C0
:100FC00088D8686A8007F7D420780427400700286B
:100FD00060DA00200190E869C00008D4E969B80629
:100FE0000143E961E96901400120009101906E48E7
:100FF0000168C90511D40168821511430160FFF72A
:1010000041FD009005E0FFF73DFD0099401A64287E
:1010100070D865480068C005F5D5A06801280AD0D9
:10102000002801D0052810D0286A40084000286216
:10103000286AB84301E0286A30432862A068002883
:1010400012D0FFF71FFD00900AE0286A384328629B
:10105000F1E7FFF717FD0099411A5448814249D83A
:10106000286A8007F5D50DE0FFF70CFD009006E03B
:10107000FFF708FD0099411A4C4881423AD8286A86
:101080008007F5D40198002804D0E9690120000701
:101090008143E9612078C00635D5606901280CD00C
:1010A000401D686B23D038436863686B400840007C
:1010B0006863FFF7E7FC064622E0686B3843686325
:1010C000686B30436863FFF7DDFC064604E0FFF71A
:1010D000D9FC801B02285BD8686B8007F7D5686B4A
:1010E000F8218843A169C900084368630BE0B8434D
:1010F0006863F4E74CE0FFF7C5FC801B022847D883
:10110000686B8007F7D4206A002846D06968090711
:10111000890F022943D001273F060228286805D0FD
:10112000B8432860FFF7AEFC044633E0B8432860BC
:10113000FFF7A8FC064604E0FFF7A4FC801B02288A
:1011400026D828688001F7D4E86AE16A000900011E
:101150000843E862616AA06A084369683D22120494
:10116000914308436860286838432860FFF78AFC89
:10117000044604E0FFF786FC001B022808D8286814
:101180008001F7D509E0FFF77DFC001B022801D99B
:101190000320FEBD28688001F5D40020FEBD01209B
:1011A000FEBD0000001002400070004088130000E7
:1011B000094910B5401E884201D9012010BD074CD5
:1011C00060610321081F00F00FFE0020A0610720CE
:1011D0002061002010BD0000FFFFFF0000E000E0E4
:1011E0007047704770B502462032137F012B1BD029
:1011F000012414770223537703685D687026B54392
:101200005D6003685D680E6835435D6003689D68D6
:101210008026B5439D600068836849680B438360FE
:1012200054770020107770BD022070BD70B50400A7
:1012300005D025462035687F002802D006E0012031
:1012400070BD00202877204600F00AF80220687759
:10125000211D206801F08CF801206877002070BD06
:1012600008B50068124A134990420DD1CA6902209C
:101270000243CA61C9690022014000910321102084
:10128000FFF788FC10200FE00B4A90420ED1CA698C
:1012900010200243CA61C969002201400091032164
:1012A0001120FFF777FC1120FFF76AFC08BD000052
:1012B0000004004000100240001000400168CA68AD
:1012C00001231A43CA6000680168194301600020C5
:1012D0007047F8B5054604462035287F012817D009
:1012E00001272F7702206877206882687726FF23FE
:1012F000B2431B029A4382600868502836D00EDC45
:10130000202856D006DC00284DD010283FD14DE0D3
:101310000220F8BD30284FD0402838D13BE060286B
:101320002CD0702816D001221203801A0DD09042C2
:101330002DD1CB684A688968206801F05DF8206883
:1013400081680122920311430EE020688168C90878
:10135000C90009E0CB684A688968206801F04CF848
:1013600020688168B1433143816010E0CA684968F0
:10137000206801F054F85021206806E0CA684968E6
:10138000206801F05DF86021206801F040F86F7777
:1013900000202877F8BDCA684968206801F03FF846
:1013A00040212068F1E700212068EEE71021206845
:1013B000EBE720212068E8E730212068E5E7704767
:1013C00070B50446006801690025C94389070029F2
:1013D00015DBC168C943890711D4E91E01610120E9
:1013E0002077206880698007204602D0FFF7E7FF5A
:1013F00004E000F096F8204600F094F82577206885
:101400000169C943490717D4C168C943490713D4BF
:101410000421C9430161022020772068806980058A
:10142000800F204602D0FFF7CAFF04E000F079F8F1
:10143000204600F077F8257720680169C94309073D
:1014400016D4C168C943090712D40821C9430161F0
:10145000042020772068C0698007204602D0FFF76B
:10146000AEFF04E000F05DF8204600F05BF8257761
:1014700020680169C943C90617D4C168C943C906B0
:1014800013D41021C9430161082020772068C06966
:101490008005800F204602D0FFF791FF04E000F0A6
:1014A00040F8204600F03EF8257720680169C943DE
:1014B000C90708D1C168C943C90704D1891E0161A0
:1014C000204600F031F820680169C943090609D4B3
:1014D000C168C943090605D48021C943016120467A
:1014E000FFF77EFE20680169C943490609D4C16837
:1014F000C943490605D44021C9430161204600F093
:1015000027F820680169C943890609D4C168C9431D
:10151000890605D42021C94301612046FFF761FEF9
:1015200070BD70477047000010B50446006806495A
:10153000884201D100F098FF04492068884201D117
:1015400000F09CFF10BD00000004004000100040AF
:10155000704770B5044660300546407A21280FD1A7
:101560002068816809060BD58168802291438160DB
:10157000206E002801D0FFF7E3F8204601F080F844
:10158000A87A22280FD12068816849060BD5816886
:10159000402291438160606E002801D0FFF7D0F8AF
:1015A000204601F051F8002070BD7047F8B5026880
:1015B0000446D069116805072D0F07D1830605D5AC
:1015C0008B0603D5204601F064F8F8BD9368002D22
:1015D00064D0DD07ED0FFF2621360E402E435DD08F
:1015E000C60706D0CE0504D501261662E26E324348
:1015F000E266860702220427002E06DADE0704D000
:1016000026683262E66E3E43E666460706D5DB078D
:1016100004D023681F62E36E1343E366020709D513
:1016200020220A402A4305D0236808221A62E36E6A
:101630001343E366E26E002AC7D0800604D588060D
:1016400002D5204601F025F8E06E000703D420689B
:10165000806840061CD5204600F0F6FF20688168AF
:10166000490611D58168402291438160606E00284F
:101670000AD012494163606EFFF778F80028A4D0C1
:10168000606E416B8847F8BD2046FFF78EFFF8BDBE
:101690002046FFF78AFF0020E066F8BD020605D568
:1016A0000A0603D5204601F0CBF8F8BD4006FCD56C
:1016B0004806FAD5204600F0D6FFF8BD652500089B
:1016C00070B5040005D025466035687A002802D040
:1016D00006E0012070BD00202872204600F026F8A8
:1016E000242068722068016849084900016020468A
:1016F00001F00EF80128EDD0606A002802D02046E3
:1017000000F0C2FE206841680122D202914341608C
:101710002068816808229143816020680168012265
:1017200011430160204600F014FF70BDF0B587B092
:10173000044614216846FEF7F2FC534E21685348D4
:101740000227012203230025B14249D18669910372
:101750000E43866186690E400596466909010E436F
:1017600046614069019708400590C020009002AE94
:101770002CC669464648FFF7DBF8474E45483060BF
:1017800010208027311DA1C135617561B5613046DA
:10179000F561FFF75DF8002801D0FEF7C1FE26666F
:1017A00074623C483C4E1430443621C63560B56006
:1017B000F56001207760400335617061304608387C
:1017C000083EFFF745F8002801D0FEF7A9FE66663F
:1017D000002201211B207462FFF7DCF91B204FE07F
:1017E0002E4EB1424ED1C669012149040E43C66155
:1017F000C6690E40059646690E43466140690197E9
:10180000084005900C20009009206946029503933A
:101810000492C006FFF78CF81F4E1E488836283009
:10182000306010208027311DA1C135617561B5611F
:101830003046F561FFF70CF8002801D0FEF770FE86
:10184000266674621348144E3C30CC3621C635608F
:10185000B560F56001207760400335617061304606
:101860000838083EFEF7F4FF002801D0FEF758FEC6
:101870006666002202211C207462FFF78BF91C208F
:10188000FFF77EF907B0F0BD0038014000100240BC
:10189000000400481C000240000D002000440040ED
:1018A000F8B5054604466035A87A202841D10029BC
:1018B0000BD0002A09D00123A0681B03984206D14F
:1018C0002069002803D1C80701D00120F8BD287A7B
:1018D00001282ED00120287258206165025300266D
:1018E000E6662220A872616E13488862616E134812
:1018F000C862616E12480863606E13464663676D86
:1019000021683A462431606EFEF7CEFF2E722068C1
:101910000168FF22013211430160206881680122C1
:10192000114381602068816840221143816000205A
:10193000F8BD0220F8BD0000C525000805260008F6
:101940007925000870477047F8B5054604466035AC
:10195000687A20283BD100290BD0002A09D0012326
:10196000A0681B03984206D12069002803D1C8074C
:1019700001D00120F8BD287A012828D00120287242
:1019800020464030E164028242820026E666212041
:101990006872216E0F488862216E0F48C862216EFE
:1019A0000E480863206E134646632768E16C3A468A
:1019B0002832206EFEF778FF2168402008622E72E0
:1019C000206881688022114381600020F8BD0220D8
:1019D000F8BD00000F2600083F2600087925000802
:1019E000016E09680A68520852000A60064B0268D4
:1019F00000219A4201D1054A91770068044A904239
:101A000001D10448817770470044004058120020FB
:101A100000380140100E00207047FEE708B50C4862
:101A20004169012211434161406910400022009048
:101A300011460A20FFF7AEF80A20FFF7A1F80022AE
:101A400011460B20FFF7A6F80B20FFF799F808BD09
:101A500000100240F0B587B014216846FEF75FFB26
:101A6000404842690121C9040A43426142690A406F
:101A700005924269C9000A43426142690A400592DF
:101A8000426949110A43426142690A40059242692A
:101A900049000A434261406907240840324F640309
:101AA0000590012221463846FEF7E6FF0122C321B8
:101AB0002E48FEF7E1FF092001222D49C006FEF75E
:101AC000DBFF2C4E012231462B48FEF7D5FFFF21CC
:101AD000092000220131C006FEF7CEFF0094012448
:101AE000002501946946384603950294FEF720FFCD
:101AF000C320009001946946039502941B48FEF7A9
:101B000017FF1B480194BE300090092069460395D9
:101B10000294C006FEF70CFF0227092002956946D1
:101B2000C006009703950194FEF702FF40206A4625
:101B3000039591C209206946C006FEF7F9FE01949B
:101B400069460D48009603950294FEF7F1FE0F20BA
:101B5000000300906946019502940748FEF7E8FEED
:101B600007B0F0BD00100240000800480014004813
:101B7000F39E00003F0F00000004004810B5094824
:101B800007490160062141600749C1607D21C90004
:101B90008160FEF77DFF002801D0FEF7C1FC10BD7B
:101BA00000300040900B0020FF0F000010B586B001
:101BB0000024009416480194029403940494134959
:101BC000059401602F218460416004616321846178
:101BD000C160FFF72BFB002801D0FEF7A1FC01201C
:101BE0000003009069460A48FFF773FB002801D004
:101BF000FEF796FC049404A905480594FFF7F2FA51
:101C0000002801D0FEF78CFC06B010BD0004004097
:101C1000A00B002010B50948074901602F21416041
:101C20000021074A8160C2608161FFF7FFFA002846
:101C300001D0FEF775FC10BD00100040E00B002045
:101C4000E703000010B50C480A490160E121490290
:101C5000416000218160C16001618161C1610C222C
:101C6000016242614162FFF72BFD002801D0FEF7BF
:101C700057FC10BD00380140200C002010B50C4866
:101C80000A490160E1214902416000218160C1608F
:101C900001618161C1610C22016242614162FFF711
:101CA0000FFD002801D0FEF73BFC10BD00440040B2
:101CB000900C002000F034FB00F042FB0E4F0F4C64
:101CC0007D250F4EED002068B84207D321680A48F1
:101CD0004042081820600B48FEF70CFF6068A842DD
:101CE000F1D36068401B606030780128EBD10020A0
:101CF000307000F09DF8E6E710270000840800200F
:101D00008D080020900B002030B5C27840790F4B31
:101D10000F4D03241B7840002B706C708118A87045
:101D20000C4805E0835C2B55641C521CE4B292B253
:101D30008A42F7D321460648FEF73AFA010A2955A6
:101D4000641CE1B26854024830BD00008C080020D9
:101D5000A01600208E0A002010B5C278094B047925
:101D60009C54002144799A185470074A435C535498
:101D7000491CC9B20829F9D3044901204870024816
:101D800010BD00008E0A0020A01600208C08002044
:101D900030B54379C17807225B005B180E4C05E033
:101DA000855C521C6554491CD2B289B29942F7D362
:101DB0000A4C0021425C6254491C89B20629F9D3BD
:101DC00006210648FEF7F4F9010AA171E071044901
:101DD00001204870014830BD8E0A0020A016002066
:101DE0008C080020704700008307FF22DB0E9A401A
:101DF0008907090E994000280BDA0007000F083800
:101E0000830808489B001818C36993430B43C361B8
:101E10007047830804489B001818036893430B43DA
:101E20000360704700ED00E000E400E07047704799
:101E300038B504460220FEF76DFB0225012C1ED1A9
:101E40003D230322012100200095FEF742FB0121E2
:101E50003D23002208460095FEF73BFB0021AEA380
:101E600004220846FEF712FA0021ACA3102208460D
:101E7000FEF70CFA00211E220846FEF79FFA00200A
:101E8000FEF7C8FA0346002122220846FEF756FA5A
:101E90000120FEF7BFFA0346002129220846FEF77B
:101EA0004DFA012C10D100219DA333220846FEF7E4
:101EB000EDF900229BA311460120FEF7E7F90F225E
:101EC00000210120FEF77AFA0220FEF7A3FA03466A
:101ED000132200210120FEF731FA0320FEF79AFABF
:101EE00003461A2200210120FEF728FA0420FEF7FB
:101EF00091FA0346212200210120FEF71FFA012C4E
:101F00000BD143232C2200210120FEF717FA4D2389
:101F1000342200210120FEF711FA0020FEF7FAFA20
:101F2000012C0BD180A3042202210020FEF7AEF980
:101F30007EA3102202210020FEF7A8F90220FEF75E
:101F4000E9FA012C19D13D23032205210020009537
:101F5000FEF7BFFA3D230022052101200095FEF780
:101F6000B8FA042272A311460020FEF78FF96DA380
:101F7000102204210020FEF789F90020FEF7CAFA9A
:101F80000520FEF747FA0346222203210020FEF730
:101F9000D5F90620FEF73EFA034629220321002048
:101FA000FEF7CCF9012C1CD162A3312203210020C1
:101FB000FEF76CF960A3002202210120FEF766F90A
:101FC0005EA30C2202210120FEF760F91A220221F1
:101FD0000120FEF7F3F957A32D2202210120FEF77D
:101FE00055F90820FEF716FA03461D2202210120AA
:101FF000FEF7A4F90920FEF70DFA03462422022178
:102000000120FEF79BF90220FEF784FA012C16D17D
:102010004BA3002204210120FEF738F947A30C222C
:1020200004210120FEF732F91A2204210120FEF7D3
:10203000C5F940A32D2204210120FEF727F90A202B
:10204000FEF7E8F903461D2204210120FEF776F988
:102050000B20FEF7DFF90346242204210120FEF7BE
:102060006DF90020FEF756FA012C10D135A3042299
:1020700006210020FEF70AF933A3102206210020D2
:10208000FEF704F91E2206210020FEF797F90C2026
:10209000FEF7C0F9012810D0022810D02BA322226D
:1020A00006210020FEF7F2F829A32E2206210020A7
:1020B000FEF7ECF8012C0AD01AE026A300E026A3D4
:1020C000222206210020FEF7E1F824A3EDE724A355
:1020D000002206210120FEF7D9F822A30C220621B6
:1020E0000120FEF7D3F81A2206210120FEF766F937
:1020F0000D20FEF78FF901280CD01BA31D2206210D
:102100000120FEF7C3F819A3292206210120FEF7BA
:10211000BDF838BD16A3F1E7B7E70000BFDA00004D
:10212000BFAA0000B6C80000B4F30000C5EF00006D
:10213000CEC20000A1E60000C9CF0000CFDE000043
:10214000CFC20000B5E70000BBFA0000CDA300003D
:10215000D6B90000D5FD0000B7B40000D7AA000032
:10216000C4A30000CABD0000CAD60000B6AF00007C
:10217000D7D4000010B5002302E0CC5CC4545B1C33
:102180009342FAD310BD10B5002000F022F80020D1
:1021900000F03FF8012000F03CF8012000F019F8B1
:1021A000002000F036F8012000F033F8002000F0A5
:1021B00010F8002000F039F80020FEF711F8012097
:1021C00000F007F8002000F030F80120FEF708F8D2
:1021D00010BD10B5002812D001280FD10022072110
:1021E0004120FEF779FA00BF00BF00BF01220B219A
:1021F0004220FEF771FA00BF00BF00BF10BD0122F0
:1022000007214120FEF768FA00BF00BF00BF00228F
:10221000EDE710B53E21084300F040FD10BD10B5BC
:10222000B821084300F03AFD10BD10B5C0210843A5
:1022300000F034FD10BD800610B5800E402108432B
:1022400000F02CFD10BD10B5FEF75CFCFEF75AFC4B
:1022500010BD70B594B030216846FDF760FF0024D2
:102260000E940F940A201394009010200994049067
:102270000D94012505200C941294C004109411941F
:10228000039502260A90089607950B946846FEF778
:10229000E5FD002800D0FEE707200C900E940121F8
:1022A0000D960F940CA8FEF7EFFC002800D0FEE777
:1022B00010A810951294FEF771FC002800D0FEE7DC
:1022C00014B070BD134801680122114301604168D8
:1022D000114A114041600168104A114001600168D3
:1022E000012292049143016041683F22120491430C
:1022F0004160C16A09090901C162016BFF22143200
:1023000091430163416B49084900416300218160A9
:1023100070470000001002400CB8FF08FFFFF6FEF7
:1023200010B50548FEF7CAFF0448FEF7C7FF00F0E6
:10233000BBFA00F05DFB10BDA00B0020E00B0020FD
:1023400010B5FEF7BFF80120FFF772FD10BD0000C9
:1023500010B50248FFF734F810BD0000A00B0020B4
:1023600010B50248FFF72CF810BD0000E00B00206C
:10237000F0B502681A4B1B4C984201D0A04203D121
:102380007025AA434D682A43174D184E184F98429E
:102390000AD0A04208D0174CA04205D0A84203D0D2
:1023A000B04201D0B84204D103242402A243CC6835
:1023B00022438024A2434C69224302608A68C2629D
:1023C0000A688262984205D0A84203D0B04201D088
:1023D000B84201D10969016301214161F0BD0000EA
:1023E000002C014000040040004001400044014036
:1023F000004801400020004030B58468FF252D02D0
:102400001B021343AC430B432343836030BD8268FC
:1024100070239A430A4307210A438260704730B50C
:10242000036A046A6408640004628469F025AC43AA
:10243000120122430A24A3430B438261036230BD8D
:1024400030B5036A1024A34303628369046A0F252D
:102450002D031203AB431A43A0239C4309012143DC
:102460008261016230BD000003480168491C0160BF
:102470004168491C416070478408002010B500F095
:102480002FFA00F0D1FA10BD10B5818CC90707D022
:1024900001684A6801235B049A43836A1A434A60CD
:1024A000818C890707D501684A6801231B049A4378
:1024B000C36A1A434A60818C490707D501684A6894
:1024C00001239B049A43036B1A434A60818C0907DA
:1024D00007D501684A680123DB039A43436B1A431B
:1024E0004A60818CC90607D501688A6801231B03ED
:1024F0009A43836B1A438A60818C890607D50168E9
:102500008A6801235B039A43C36B1A438A60818CF8
:10251000490612D501684B6801221205046C9343E9
:1025200023434B60016C914207D101684A68032341
:102530005B059A43436C1A434A60818C090607D5B0
:1025400001684A680123DB04806C9A4302434A60B5
:1025500010BD0022C2662021603041728172027279
:102560001046704710B5406A0022014640314A8348
:102570004A82FFF71AF810BD70B5446A20466030F1
:102580000546407A0026212808D120688068000688
:1025900004D552200653204600F072F8A87A22286B
:1025A00008D120688068400604D55A20065320468A
:1025B00000F04AF8E06E10210843E0662046FEF77E
:1025C000F4FF70BD10B501460968406A09688906C4
:1025D00015D400225A210A5201680A68FF230133E8
:1025E0009A430A6001688A68520852008A6001684A
:1025F0008A6840239A438A6020226A210A54FFF79E
:10260000A1F910BD10B5406AFFF79DF910BD10B5D6
:1026100001460968406A096889060DD400225221E2
:102620000A5201688A6880239A438A6000680168B8
:1026300040221143016010BDFFF7D2F910BD10B563
:10264000406AFFF7E9F910BD01680A68FF232133EA
:102650009A430A6001688A68520852008A60202101
:1026600060308172704710B501680A6840239A4350
:102670000A60202269210A54FFF7B2F9002010BD38
:1026800001680A68C0239A430A60202160304172C1
:10269000704770B50246403201466031938B8D7AA7
:1026A0000C460168222D05D08869082210438861F4
:1026B000022070BD898C012685683603B54202D19F
:1026C0000569002D0BD01940436D5D1C45651970DF
:1026D000518B491E0904090C518307D015E0456D43
:1026E00019402980416D891C4165F1E701680A683C
:1026F000FF2321339A430A6001688A685208520016
:102700008A602021A172FFF71DF9002070BD000032
:10271000F8B50446A3682269E5691343626910208D
:1027200000212A43134322680E4615683E4F3D4060
:102730001D4315602268536803252D03AB43E568EC
:102740002B435360A369226A1343226895680B27C1
:102750003F02BD431D439560344A2568954210D120
:10276000334A126B9207920F0ED0012A05D0022A2B
:1027700005D0032A09D1022007E0042005E0082043
:1027800003E02C4A954200D100200122E369D203E4
:10279000934224D100280CD002280DD0042813D055
:1027A000082817D001260A0912010807400F104314
:1027B0002FE0FEF705FB09E061681F4A4808801812
:1027C000FDF790FC81B2EEE7FEF70AFB616840007E
:1027D0004A08F4E76168012248081204EFE700287C
:1027E00008D0022809D004280BD0082814D00126CC
:1027F0003046F8BDFEF7E4FA05E061680F4A480884
:102800000CE0FEF7EDFA61684A088018FDF76AFCF3
:1028100080B22168C860EBE7616848088018FDF75E
:1028200061FC80B2E860E3E7F369FFFF0038014034
:1028300000100240004400400024F40000127A001E
:102840006921095C212901D00220704701464031ED
:102850004A8A002A12D0012382681B039A4202D1BD
:102860000269002A15D0C26C531CC3640068127838
:102870000285488A401E48820020704701680A6825
:1028800080239A430A600068016840221143016076
:10289000F2E7C26C03681288D205D20D1A85C26CA9
:1028A000921CC264E5E7000010B500F065F8054928
:1028B0000020487604480068016810221143016036
:1028C00010BD000030120020200C002010B500F0D8
:1028D00055F90248FEF76AFE10BD0000200C0020EA
:1028E000F8B51F4D0024687E012838D12E46203EC1
:1028F000F26B1D481B490090FFF73CFCF06B1B4935
:1029000008641B48006802681026B2430260194F31
:1029100038680268B2430260086C81B2009800F027
:1029200011F905E00120641CFDF7F3FF0A2C04DC1B
:102930000D481F38807F0128F4D038680168314382
:10294000016000F0DFF80948002420304476084890
:10295000006801683143016000F00EF86C76F8BD44
:10296000301200202F0E0020771200205816002071
:10297000200C0020900C002010B50C48FEF7E9FD5B
:102980000B4A0C490948FEF78BFF084801210268F1
:102990001162026802211162026804211162026858
:1029A0000821116200681021016210BD200C002076
:1029B0001A0400002F0E0020F8B50E46074600242A
:1029C000094D06E0641CE4B20A20FDF7A2FF0A2CC0
:1029D00009D8A87F0128F5D0324639460348FEF7CA
:1029E000B3FF0120A877F8BD100E0020200C0020B6
:1029F00010B500F087F805490020487604480068C3
:102A0000016810221143016010BD000078160020FB
:102A1000900C002010B500F0F9F80248FEF7C6FD52
:102A200010BD0000900C0020F8B5304F0024787ED7
:102A3000012859D13D46203DEA6B2E482C49009093
:102A4000FFF798FBE86B2C4E30642C480068016857
:102A50001025A943016027481F38C07FFE2824D0D5
:102A60002748FEF776FD264800680168A943016003
:102A7000306C81B20098FFF79FFF1E4E1F3E05E0AD
:102A80000120641CFDF745FF0A2C02DCB07F012801
:102A9000F6D01B480068016829430160FFF76CFF0E
:102AA000154900202031487615E00098FDF76AFDB1
:102AB0000646FDF786FD0146304600F043F80C4E11
:102AC0001F3E05E00120641CFDF723FF0A2C02DCF9
:102AD000B07F0128F6D009480068016829430160E9
:102AE00000F010F800207876F8BD0000781600207D
:102AF000771200202F0E002010120020900C0020D2
:102B0000200C002010B50C48FEF723FD0B4A0C49A1
:102B10000948FEF7C5FE08480121026811620268F3
:102B20000221116202680421116202680821116207
:102B300000681021016210BD900C00201A040000F2
:102B400077120020F8B50E4607460024094D06E02E
:102B5000641CE4B20A20FDF7DCFE0A2C09D8A87F29
:102B60000128F5D0324639460348FEF7EDFE012034
:102B7000A877F8BD58120020900C0020F8B51F4C23
:102B80002068C0690126C043C006002827DB1C4D11
:102B90002879012804D10A20FDF7BBFE0020287106
:102BA000174D203D697E1748174F0090002902D02D
:102BB0003A46014610E01148FEF7CBFC606E006813
:102BC00040683A46391A0E484038C163C06B002845
:102BD00001D06E7603E000990848FEF761FE206898
:102BE00006622168022008622168042008622168C8
:102BF00008200862216810200862F8BD200C00201F
:102C0000501200202F0E00201A040000F8B51F4CAF
:102C10002068C0690126C043C006002827DB1C4D80
:102C20002879012804D10A20FDF773FE00202871BD
:102C3000174D203D697E1748174F0090002902D09C
:102C40003A46014610E01148FEF783FC606E0068CA
:102C500040683A46391A0E484038C163C06B0028B4
:102C600001D06E7603E000990848FEF719FE20684F
:102C70000662216802200862216804200862216837
:102C800008200862216810200862F8BD900C00201E
:102C900098160020771200201A04000010B5044690
:102CA000002204214220FDF717FD00220E214320BF
:102CB000FDF712FD2046FDF793FC0122032142207F
:102CC000FDF70AFD00BF00BF00BF00220321422024
:102CD000FDF702FD00BF00BF00BF10BD10B50446E8
:102CE000012204214220FDF7F7FC00220E2143209F
:102CF000FDF7F2FC2046FDF773FC01220321422080
:102D0000FDF7EAFC00BF00BF00BF00220321422004
:102D1000FDF7E2FC00BF00BF00BF10BD30B4744639
:102D2000641E2578641CAB4200D21D46635D5B00C7
:102D3000E31830BC184702E008C8121F08C1002A77
:102D4000FAD170477047002001E001C1121F002A2C
:102D5000FBD17047FDF7DEFEFFF77BFAFEF77AFE48
:102D6000FEF75CFEFEF76EFFFEF720FFFEF786FF24
:102D7000FEF704FFFEF74EFFFEF79CFFFCE70000A6
:102D8000000000000000010203040607080900001B
:102D90000000010203040000B82D0008000000201C
:102DA000900B00005801000860340008900B0020D0
:102DB00010100000462D00085113127A121800312D
:102DC0001BB7E7BFDABFAAB6C8B4F3C5EFCEC2B52A
:102DD000E7BBFACDA3D6B9D5FDD7AAB7B4C4A3CA69
:102DE000BDD7D4B6AFCAD6A1E6C9CFCFC2CFDED544
:102DF000C72009F8284888482808F810092018072B
:102E00000806010608241F20383BF0100142F03B61
:102E10000F0801220F4E80888888F8041A80321A21
:102E20001013115A3F481D28F8ACA80611580B3052
:102E300008272012160A161220016AFC091012181F
:102E40000806030204083020209050FC90F848F84F
:102E500016F84848F8011D3F100F22041712223FB0
:102E60002044881B7C5401227C1808182E203E2206
:102E70003E2203133E201EF0909090FC04299010F7
:102E800011070404043F24242427203810D0FC9088
:102E9000102BF808C01A038A2A219219C01440F096
:102EA0000C180908E8A8ACA8E8080817300A060AB0
:102EB0000A2A3A0A0A0A0622E01BFC80011119912B
:102EC0003A3F031901111B08C8E129DA4B8808149D
:102ED0004918101290F09CD0805050F05C50504037
:102EE000080C043F022E0909193503F02008C848D0
:102EF00048484444C4180B100C23202116080C1316
:102F00001031280CA0FCA008E8BCA8A8BCE80890D8
:102F10001009292B1A0E0A1A2B2819BB1009909098
:102F200010FC101418101C08080F6D26030C10203C
:102F30003819D94B9894D8113B1F1401221F10192E
:102F4000404848C848402020FC2020E004060524D2
:102F5000241408060110201F197510084848F84469
:102F60004444401A02012C12221F0712021D18D8D5
:102F7000E0105543103070090307081010100804C2
:102F80002BFC40012129D159EF198419EF1B4888E6
:102F90000661223F1A01D715F80868981BF8A801A6
:102FA00012F81C3F0204C317100A040A1220700A08
:102FB00080402010F8102040801930011772F83A34
:102FC000338B1C100C0603912C40C07803112C0489
:102FD0003F0403212D7088FC0829261820FF211E9C
:102FE00014F008F033E0184D211C031E11338870D3
:102FF000000C101E2123241927211010160E45E065
:103000001804021C071820E43D020418E0692C2073
:103010001807071D4080F080FC3F0202010F0102EB
:103020002842F01D0101011F04912B80B066B119E7
:103030001D2901913A30CE492C146018043C6018C7
:10304000061D1EE010080810721F0F102020100F20
:10305000F05310F83620203F20203C700808C21E94
:103060003028242221441E3008888848082E182041
:10307000202011CC3BC0203227070424243F241AEF
:10308000F8202308084B19212036E0108888184BB7
:103090000F11101E380808C8382021523F1A702E10
:1030A00029608F1C222121221C90111D3122221106
:1030B000901961CAC0C26A80C659081C40201050CD
:1030C000170102040810204A4001114A0401211985
:1030D000152A403219251B0402F21B7048D13AF020
:1030E000501A360F1EC030C828E870280807182765
:1030F0002423140B6F2A387E280D203C230202273C
:10310000382008F888889F4B203FF01BC0303F1BB9
:10311000083830191019781B08F80F194039201B8E
:10312000100F103E8888E8081010AC2320181011EA
:103130002A035E2940223829402C221E024019A46D
:103140001809F808203F21010121252A0852298168
:1031500029424149112EC08080807F0E2FF888C0FF
:10316000281808501C0126382F2940292F29801B98
:1031700020301012F81AF81413203F190229204B9E
:1031800030C0601A2074123F4BE010B06B0F10B0CB
:1031900029D01AF0301980220179203F18242438D0
:1031A000504FC04C888870C0140C30204B7088C1C0
:1031B0001738202121221C3A189F4A188239A04929
:1031C000D0112A1F90121F240878881BC838151C9C
:1031D00007380E60191A1AF8201114033C07140757
:1031E0003C034814081868808068180820302C03B5
:1031F000032C30200838C82F5950298F29102F2030
:103200003826212020681145FE020202257F404019
:10321000401A0CE0611C0106380B191D42FE191DF5
:10322000527F1A04120211045A80011930D91D3933
:103230001621180819242222223F20AB390F115FD2
:103240003F112020110E21311A0E104B2011104B6E
:1032500088F8102A10B359401A1F3F2B22130F165B
:10326000F0888888181A20D029D1497A21176B94C0
:10327000949493603960190F4C203F21F354809847
:1032800098793059121AC02719D1193039311F20B5
:103290003F24022D30212A0812893069D7294B2971
:1032A00003190BC96079A019BF2B201FDD390F9CB2
:1032B00080FFA1E0191229D03BA0FF0C3950194121
:1032C00012208A01C01B3324012A190F3AE0413928
:1032D00052290F392349603C103F202C29053F011A
:1032E0000E3008060170291038080F300C030C301E
:1032F0000F2C49A14E312E0E31200C29621D818EDA
:1033000070183059D1215721302C22213055807C22
:103310000202443F404072FF39083C02027C8F5455
:1033200040403F0008110601010202040422FE2869
:1033300008C1814001C0804104690C2908E918A92D
:103340001C091A30091638093660092E70092F60D9
:1033500000FF00C0C101C30302C2C60607C705C5FE
:10336000C404CC0C0DCD0FCFCE0E0ACACB0BC909AD
:1033700008C8D81819D91BDBDA1A1EDEDF1FDD1DBD
:103380001CDC14D4D515D71716D6D21213D311D1ED
:10339000D010F03031F133F3F23236F6F737F5353D
:1033A00034F43CFCFD3DFF3F3EFEFA3A3BFB39F96D
:1033B000F83828E8E929EB2B2AEAEE2E2FEF2DED3D
:1033C000EC2CE42425E527E7E62622E2E323E121AD
:1033D00020E0A06061A163A3A26266A6A767A565BD
:1033E00064A46CACAD6DAF6F6EAEAA6A6BAB69A92D
:1033F000A86878B8B979BB7B7ABABE7E7FBF7DBD3D
:10340000BC7CB47475B577B7B67672B2B373B1716C
:1034100070B050909151935352929656579755953C
:1034200094549C5C5D9D5F9F9E5E5A9A9B5B9959EC
:103430005898884849894B8B8A4A4E8E8F4F8D4DBC
:103440004C8C44848545874746868242438341812C
:1034500080124072FE321E12251221120302EE0269
:04000005080000B53A
:00000001FF
